:020000040000FA
:100000000C945D000C9485000C9485000C94850084
:100010000C9485000C9485000C9485000C9485004C
:100020000C9485000C9485000C9485000C94A2031C
:100030000C9485000C9485000C9485000C9485002C
:100040000C9400030C9485000C9470030C944A03E8
:100050000C9485000C9485000C9485000C9485000C
:100060000C9485000C9485000000000024002700FB
:100070002A0000000000250028002B0004040404CE
:100080000404040402020202020203030303030342
:10009000010204081020408001020408102001021F
:1000A00004081020000000080002010000030407FB
:1000B00000000000000000005E0411241FBECFEF0E
:1000C000D8E0DEBFCDBF11E0A0E0B1E0E0E5F4E1B3
:1000D00002C005900D92A832B107D9F722E0A8E23C
:1000E000B1E001C01D92A930B207E1F710E0CDE503
:1000F000D0E004C02197FE010E942508CC35D1072D
:10010000C9F70E94BB040C94260A0C94000090E0EE
:10011000FC01EC55FF4F2491FC01E057FF4F349157
:10012000FC01E458FF4FE491EE23C9F0222339F09B
:10013000233001F1A8F4213019F1223029F1F0E047
:10014000EE0FFF1FEE58FF4FA591B4918FB7F894B3
:10015000EC91611126C030953E233C938FBF0895EA
:100160002730A9F02830C9F0243049F78091800069
:100170008F7D03C0809180008F7780938000DFCFD8
:1001800084B58F7784BDDBCF84B58F7DFBCF809125
:10019000B0008F778093B000D2CF8091B0008F7D78
:1001A000F9CF3E2BDACF3FB7F89480913801909188
:1001B0003901A0913A01B0913B0126B5A89B05C039
:1001C0002F3F19F00196A11DB11D3FBFBA2FA92FD6
:1001D000982F8827BC01CD01620F711D811D911DD3
:1001E00042E0660F771F881F991F4A95D1F708953F
:1001F0008F929F92AF92BF92CF92DF92EF92FF9237
:100200000E94D3004B015C0184E6C82ED12CE12C66
:10021000F12C0E94D300681979098A099B09683E6C
:10022000734081059105A8F321E0C21AD108E108C5
:10023000F10888EE880E83E0981EA11CB11CC11441
:10024000D104E104F10429F7FF90EF90DF90CF9003
:10025000BF90AF909F908F9008950895AF92BF92F6
:10026000CF92DF92EF92FF920F931F93CF93DF9382
:100270006C017B018B01040F151FEB015E01AE18B1
:10028000BF08C017D10759F06991D601ED91FC91D3
:100290000190F081E02DC6010995892B79F7C50100
:1002A000DF91CF911F910F91FF90EF90DF90CF9052
:1002B000BF90AF900895FC01538D448D252F30E001
:1002C000842F90E0821B930B541710F0CF96089563
:1002D00001970895FC01918D828D981761F0A28D90
:1002E000AE0FBF2FB11D5D968C91928D9F5F9F7356
:1002F000928F90E008958FEF9FEF08952FB7F894B5
:1003000080913C0190913D01A0913E01B0913F014F
:100310002FBF8093480190934901A0934A01B09365
:100320004B0180E491E00E946A0197FF26C02FB73D
:10033000F89480913C0190913D01A0913E01B091D3
:100340003F012FBF409148015091490160914A01FE
:1003500070914B01841B950BA60BB70B4091440188
:1003600050914501609146017091470184179507AE
:10037000A607B707B0F28FEF9FEF0895FC01918DAC
:10038000828D981731F0828DE80FF11D858D90E0F8
:1003900008958FEF9FEF0895FC01918D228D892F95
:1003A00090E0805C9F4F821B91098F73992708957D
:1003B00080E491E00E94CC0121E0892B09F420E047
:1003C000822F089580E090E0892B29F00E94D801C7
:1003D00081110C9400000895FC01A48DA80FB92F81
:1003E000B11DA35ABF4F2C91848D90E001968F735D
:1003F0009927848FA689B7892C93A089B1898C917C
:10040000837080648C93938D848D981306C00288CA
:10041000F389E02D80818F7D80830895EF92FF9294
:100420000F931F93CF93DF93EC0181E0888F9B8D17
:100430008C8D98131AC0E889F989808185FF15C0D1
:100440009FB7F894EE89FF896083E889F9898081F4
:100450008370806480839FBF81E090E0DF91CF91C3
:100460001F910F91FF90EF900895F62E0B8D10E0E5
:100470000F5F1F4F0F731127E02E8C8D8E110CC054
:100480000FB607FCFACFE889F989808185FFF5CF9F
:10049000CE010E94EC01F1CFEB8DEC0FFD2FF11D91
:1004A000E35AFF4FF0829FB7F8940B8FEA89FB89DC
:1004B00080818062CFCFCF93DF93EC01888D88233A
:1004C000B9F0AA89BB89E889F9898C9185FD03C0B7
:1004D000808186FD0DC00FB607FCF7CF8C9185FF9C
:1004E000F2CF808185FFEDCFCE010E94EC01E9CFF4
:1004F000DF91CF910895CF93DF93EC0188819981AB
:10050000009711F00E94C708198218821D821C8270
:100510001B821A82DF91CF910895FC018081918125
:10052000009711F00C94C70808950F931F93CF9371
:10053000DF93EC0188819981009759F02A813B81F2
:100540002617370730F081E0DF91CF911F910F918F
:1005500008958B016F5F7F4F0E945009009759F0FB
:10056000998388831B830A832C813D81232B59F730
:10057000FC011082E8CF80E0E7CFEF92FF920F936B
:100580001F93CF93DF938C017B016115710561F09F
:10059000EB0109900020E9F72197C61BD70BBE019C
:1005A0000E94950281110BC0C8010E947B02C80104
:1005B000DF91CF911F910F91FF90EF900895F80177
:1005C000D583C483B701808191810E941F0AEFCF38
:1005D000CF93DF93EC0170E060E00E9495028111FF
:1005E00005C0CE01DF91CF910C947B021D821C824D
:1005F00067E271E088819981DF91CF910C941F0AA5
:100600001F920F920FB60F9211242F933F938F9347
:100610009F93AF93BF9380913C0190913D01A09136
:100620003E01B0913F013091370123E0230F2D3778
:1006300058F50196A11DB11D2093370180933C010F
:1006400090933D01A0933E01B0933F01809138010A
:1006500090913901A0913A01B0913B010196A11D01
:10066000B11D8093380190933901A0933A01B09362
:100670003B01BF91AF919F918F913F912F910F902F
:100680000FBE0F901F90189526E8230F0296A11D0C
:10069000B11DD2CF1F920F920FB60F9211242F933C
:1006A0003F934F935F936F937F938F939F93AF93FA
:1006B000BF93EF93FF9380E491E00E94EC01FF91E0
:1006C000EF91BF91AF919F918F917F916F915F91CA
:1006D0004F913F912F910F900FBE0F901F90189543
:1006E0001F920F920FB60F9211242F938F939F9307
:1006F000EF93FF93E0915001F09151018081E091DF
:100700005601F091570182FD1BC0908180915901E3
:100710008F5F8F7320915A01821741F0E091590148
:10072000F0E0E05CFE4F958F80935901FF91EF91CF
:100730009F918F912F910F900FBE0F901F90189542
:100740008081F4CF1F920F920FB60F9211242F9336
:100750003F934F935F936F937F938F939F93AF9349
:10076000BF93CF93DF93EF93FF9380912801C091C4
:100770000102D0E087FF24C010928500109284000F
:10078000809128018F5F8093280180912801082E95
:10079000000C990B8C179D0724F4809128018C3054
:1007A000C4F18091840090918500049680349C4926
:1007B00008F47AC08091840090918500049676C0F8
:1007C00080912801082E000C990B8C179D07C4F608
:1007D000E09128018E2FEE0F990BFC01EE0FFF1F09
:1007E000E80FF91FE352FE4F808186FFC9CFE091E9
:1007F00028018E2FEE0F990BFC01EE0FFF1FE80F63
:10080000F91FE352FE4F808160E08F730E948700E2
:10081000B7CF2091840030918500E09128018E2F80
:10082000EE0F990BFC01EE0FFF1FE80FF91FE352CB
:10083000FE4F81819281820F931F90938900809354
:100840008800E09128018E2FEE0F990BFC01EE0F2E
:10085000FF1FE80FF91FE352FE4F808186FF11C092
:10086000E09128018E2FEE0F990BFC01EE0FFF1F78
:10087000E80FF91FE352FE4F808161E08F730E9401
:100880008700FF91EF91DF91CF91BF91AF919F9141
:100890008F917F916F915F914F913F912F910F9029
:1008A0000FBE0F901F90189580E49CE990938900EB
:1008B000809388008FEF80932801E3CF109243014B
:1008C0001092420188EE93E0A0E0B0E080934401F2
:1008D00090934501A0934601B09347018AE091E0CF
:1008E000909341018093400185EC90E090934D01FD
:1008F00080934C0184EC90E090934F0180934E01E3
:1009000080EC90E0909351018093500181EC90E055
:10091000909353018093520182EC90E090935501A3
:100920008093540186EC90E0909357018093560198
:100930001092590110925A0110925B0110925C01C1
:10094000809101028C3098F491E0980F909301020D
:100950008093020290E0FC01EE0FFF1FE80FF91FE9
:10096000E352FE4F88EB9BE09283818308958FEFE3
:10097000809302020895CF93DF93CDB7DEB7289717
:100980000FB6F894DEBF0FBECDBF789484B58260F9
:1009900084BD84B5816084BD85B5826085BD85B523
:1009A000816085BD80916E00816080936E001092A1
:1009B000810080918100826080938100809181001C
:1009C00081608093810080918000816080938000AD
:1009D0008091B10084608093B1008091B00081600B
:1009E0008093B00080917A00846080937A00809137
:1009F0007A00826080937A0080917A00816080938F
:100A00007A0080917A00806880937A001092C10009
:100A1000809102028C3008F068C0E6E9F0E0249191
:100A2000E2E8F0E08491882399F090E0880F991F24
:100A3000FC01E859FF4FA591B491FC01EE58FF4F1E
:100A4000859194918FB7F894EC91E22BEC938FBF42
:100A500080910202282F30E0F901EE0FFF1FE20F14
:100A6000F31FE352FE4F9081907C9660908310922A
:100A70000302109204022CE0622F0E941908829F48
:100A8000B001112430E020E0AB01420F531FFA0106
:100A9000EE0FFF1FE40FF51FE352FE4F908196FD0E
:100AA00016C02F5F3F4F2C30310571F781110FC0F9
:100AB0001092800082E08093810010928500109255
:100AC0008400B19A80916F00826080936F00E09102
:100AD00002028E2F90E0FC01EE0FFF1FE80FF91FBE
:100AE000E352FE4F808180648083E0915001F09159
:100AF000510182E08083E0914C01F0914D01108220
:100B0000E0914E01F0914F0180E1808310925801F5
:100B1000E0915401F091550186E08083E09152010B
:100B2000F0915301808180618083E0915201F091C6
:100B30005301808188608083E0915201F0915301DC
:100B4000808180688083E0915201F091530180811F
:100B50008F7D8083AA24A39470E0272E70E0372E27
:100B600080912F01811112C010922A011092290147
:100B700010922C0110922B0110922E0110922D0137
:100B800089E291E00E94E802A0922F0180E491E0C6
:100B90000E94CC01181619060CF04EC11A82198257
:100BA0001C821B821E821D82CE0101960E94E802D9
:100BB0000E947E0197FD1EC08A309105D9F08F8377
:100BC00018860D811E810F5F1F4FB801CE0101965F
:100BD0000E949502882361F329813A818D819E814B
:100BE000BE01695F7F4F820F931F0E941F0A1E8301
:100BF0000D83DECF8091290190912A01009709F49D
:100C00002BC169817A816115710509F423C1409175
:100C10002B0150912C012D813E814217530708F47E
:100C200019C10E941F0A8D819E8190932E0180938D
:100C30002D011E821D82CE0101960E948D021A8214
:100C400019821C821B821E821D82CE0101960E9487
:100C5000E80200912D0110912E0101151105E9F016
:100C60000430110510F004E010E0E0912901F0914A
:100C70002A01E00FF11FF08010826091290170912C
:100C80002A01CE0101960E94BD0280912901909116
:100C90002A01080F191FF801F0828D819E81892B8E
:100CA00049F068E171E089819A810E94160A11E099
:100CB000892B09F010E0CE0101960E948D021123CC
:100CC00009F49EC01A8219821C821B821E821D8218
:100CD000CE0101960E94E80200912D0110912E0193
:100CE00005301105F8F00530110511F006E010E0AF
:100CF000E0912901F0912A01E00FF11FF0801082AC
:100D00006091290170912A016C5F7F4FCE0101969D
:100D10000E94BD028091290190912A01080F191F9C
:100D2000F801F08289819A81C12CD12C760100973B
:100D300019F00E9443076B01CE0101960E948D02BB
:100D4000B0900202FBE0FB1508F458C08091040249
:100D500048E5842E42E0942E881A910887FD9394EA
:100D6000880C991C880C991C8091030208E810E0FB
:100D7000081B110987FD1395000F111F000F111F8C
:100D80002801012E000C66087708D601A53BB105A5
:100D900014F0A4EBB0E0B7FF02C0B0E0A0E0940113
:100DA000092C000C440B550B241935094609570929
:100DB0000E94A90724EB30E040E050E00E947F074A
:100DC000420E531E641E751E401651062CF08401FF
:100DD000481459040CF4820102501109000F111F2C
:100DE0002FB7F8948B2D90E0FC01EE0FFF1FE80F5A
:100DF000F91FE352FE4F128301832FBF0E94F800B8
:100E000047E050E06DE171E080E491E00E942E0146
:100E100040912D0150912E016091290170912A017C
:100E200080E491E00E942E0142E050E065E271E032
:100E300080E491E00E942E010E94F8002114310408
:100E400009F48ECE0E94D801882309F483CE0E9433
:100E5000000080CE0E94C70889819A8190932A0160
:100E6000809329018B819C8190932C0180932B018D
:100E70008D819E8190932E0180932D011A8219827B
:100E80001C821B82D6CE1F93FC0199278827BC01A8
:100E9000E89411911032E9F3193010F01E30C8F3C4
:100EA0001B3251F01D3249F4689406C00E946A0753
:100EB000610F711D811D911D119110531A30B0F3F6
:100EC0003EF490958095709561957F4F8F4F9F4F21
:100ED0001F910895592F482F372F262F660F771F00
:100EE000881F991F660F771F881F991F620F731F36
:100EF000841F951F660F771F881F991F0895052E61
:100F000097FB1EF400940E94960757FD07D00E949D
:100F1000E80707FC03D04EF40C94960750954095D3
:100F2000309521953F4F4F4F5F4F08959095809595
:100F3000709561957F4F8F4F9F4F08950E940A08CB
:100F4000A59F900DB49F900DA49F800D911D11241D
:100F50000895B7FF0C949E070E949E07821B930B77
:100F600008952F923F924F925F926F927F928F924D
:100F70009F92AF92BF92CF92DF92EF92FF920F9328
:100F80001F93CF93DF93CDB7DEB7CA1BDB0B0FB632
:100F9000F894DEBF0FBECDBF09942A8839884888EF
:100FA0005F846E847D848C849B84AA84B984C88485
:100FB000DF80EE80FD800C811B81AA81B981CE0F7C
:100FC000D11D0FB6F894DEBF0FBECDBFED01089561
:100FD000A1E21A2EAA1BBB1BFD010DC0AA1FBB1F3D
:100FE000EE1FFF1FA217B307E407F50720F0A21BAF
:100FF000B30BE40BF50B661F771F881F991F1A941C
:1010000069F760957095809590959B01AC01BD0145
:10101000CF010895A29FB001B39FC001A39F700D9F
:10102000811D1124911DB29F700D811D1124911DF0
:101030000895991B79E004C0991F961708F0961B34
:10104000881F7A95C9F780950895EE0FFF1F0590C8
:10105000F491E02D09940F931F93CF93DF93823087
:10106000910510F482E090E0E0910702F09108020F
:1010700030E020E0B0E0A0E0309799F42115310590
:1010800009F44AC0281B390B24303105D8F58A8170
:101090009B816115710589F1FB0193838283FE01B8
:1010A00011C0408151810281138148175907E0F036
:1010B0004817590799F4109761F012960C931297FC
:1010C00013961C933296CF01DF91CF911F910F9110
:1010D00008950093070210930802F4CF21153105FB
:1010E00051F04217530738F0A901DB019A01BD0105
:1010F000DF01F801C1CFEF01F9CF9093080280938F
:101100000702CDCFFE01E20FF31F8193919322508E
:10111000310939832883D7CF209105023091060207
:10112000232B41F4209102013091030130930602F8
:101130002093050220910001309101012115310514
:1011400041F42DB73EB74091040150910501241B95
:10115000350BE0910502F0910602E217F307A0F4C7
:101160002E1B3F0B2817390778F0AC014E5F5F4FFD
:101170002417350748F04E0F5F1F50930602409327
:101180000502819391939FCFF0E0E0E09CCFCF9355
:10119000DF930097E9F0FC01329713821282A0914D
:1011A0000702B0910802ED0130E020E01097A1F4B1
:1011B00020813181820F931F209105023091060218
:1011C0002817390709F061C0F0930602E093050281
:1011D000DF91CF910895EA01CE17DF07E8F54A8144
:1011E0005B819E0141155105B1F7E901FB83EA835B
:1011F00049915991C40FD51FEC17FD0761F4808107
:1012000091810296840F951FE901998388838281D9
:1012100093819B838A83F0E0E0E012968D919C910C
:1012200013970097B9F52D913C911197CD01029636
:10123000820F931F2091050230910602281739076B
:1012400039F6309751F51092080210920702B093C8
:101250000602A0930502BCCFD383C2834081518193
:10126000840F951FC817D90761F44E5F5F4F8881BF
:101270009981480F591F518340838A819B819383B1
:1012800082832115310509F0B0CFF0930802E09375
:1012900007029ECFFD01DC01C0CF13821282D7CF9F
:1012A000B0E0A0E0E6E5F9E00C94B3078C0100970C
:1012B00051F4CB010E942B088C01C801CDB7DEB7D9
:1012C000E0E10C94CF07FC01E60FF71F9C012250D0
:1012D0003109E217F30708F49DC0D901CD91DC91E3
:1012E0001197C617D70798F0C530D10530F3CE0156
:1012F00004978617970708F3C61BD70B2297C1934D
:10130000D1936D937C93CF010E94C708D6CF5B0128
:10131000AC1ABD0A4C018C0E9D1EA0910702B09123
:101320000802512C412CF12CE12C109731F58091C1
:101330000502909106028815990509F05CC04616D1
:10134000570608F058C08091000190910101009764
:1013500041F48DB79EB74091040150910501841B63
:10136000950BE817F90708F055C0F0930602E093D3
:101370000502F90171836083A0CF8D919C91119733
:1013800012966C90129713967C901397A815B90536
:1013900059F56C0142E0C40ED11CCA14DB0420F1E3
:1013A000AC014A195B09DA011296159780F0628246
:1013B000738251834083D9016D937C93E114F104CE
:1013C00071F0D7011396FC93EE93129776CF229685
:1013D0008C0F9D1FF90191838083F301EFCFF09370
:1013E0000802E093070269CF4816590608F42C0159
:1013F0007D01D3019ACFCB010E942B087C0100977D
:1014000049F0AE01B8010E940D0AC8010E94C70848
:10141000870153CF10E000E050CFFB01DC0102C098
:1014200001900D9241505040D8F70895FB01DC0126
:101430008D91019080190110D9F3990B0895FB014A
:10144000DC0101900D920020E1F70895F894FFCFA0
:10145000000009028000000000000E022E015B0166
:101460005B02CC016A01BE016D6F76650045636861
:081470006F203A20000D0A0074
:107E0000112484B714BE81FFF0D085E080938100F7
:107E100082E08093C00088E18093C10086E0809377
:107E2000C20080E18093C4008EE0C9D0259A86E02C
:107E300020E33CEF91E0309385002093840096BBD3
:107E4000B09BFECF1D9AA8958150A9F7CC24DD24C4
:107E500088248394B5E0AB2EA1E19A2EF3E0BF2EE7
:107E6000A2D0813461F49FD0082FAFD0023811F036
:107E7000013811F484E001C083E08DD089C08234E0
:107E800011F484E103C0853419F485E0A6D080C0E4
:107E9000853579F488D0E82EFF2485D0082F10E0AE
:107EA000102F00270E291F29000F111F8ED06801E7
:107EB0006FC0863521F484E090D080E0DECF843638
:107EC00009F040C070D06FD0082F6DD080E0C81688
:107ED00080E7D80618F4F601B7BEE895C0E0D1E017
:107EE00062D089930C17E1F7F0E0CF16F0E7DF06D8
:107EF00018F0F601B7BEE89568D007B600FCFDCFD4
:107F0000A601A0E0B1E02C9130E011968C91119780
:107F100090E0982F8827822B932B1296FA010C0160
:107F200087BEE89511244E5F5F4FF1E0A038BF0790
:107F300051F7F601A7BEE89507B600FCFDCF97BE46
:107F4000E89526C08437B1F42ED02DD0F82E2BD052
:107F50003CD0F601EF2C8F010F5F1F4F84911BD097
:107F6000EA94F801C1F70894C11CD11CFA94CF0C13
:107F7000D11C0EC0853739F428D08EE10CD085E9AC
:107F80000AD08FE07ACF813511F488E018D01DD067
:107F900080E101D065CF982F8091C00085FFFCCF94
:107FA0009093C60008958091C00087FFFCCF809118
:107FB000C00084FD01C0A8958091C6000895E0E648
:107FC000F0E098E1908380830895EDDF803219F02E
:107FD00088E0F5DFFFCF84E1DECF1F93182FE3DFCA
:107FE0001150E9F7F2DF1F91089580E0E8DFEE27F6
:047FF000FF270994CA
:027FFE00040479
:00000001FF
